{
  "_format": "hh-sol-artifact-1",
  "contractName": "Arbitrage",
  "sourceName": "contracts/Arbitrage.sol",
  "abi": [
    {
      "inputs": [
        {
          "internalType": "address",
          "name": "_addressProvider",
          "type": "address"
        }
      ],
      "stateMutability": "nonpayable",
      "type": "constructor"
    },
    {
      "anonymous": false,
      "inputs": [
        {
          "indexed": true,
          "internalType": "address",
          "name": "_from",
          "type": "address"
        },
        {
          "indexed": true,
          "internalType": "address",
          "name": "_assetAddress",
          "type": "address"
        },
        {
          "indexed": false,
          "internalType": "uint256",
          "name": "amount",
          "type": "uint256"
        }
      ],
      "name": "LogWithdraw",
      "type": "event"
    },
    {
      "anonymous": false,
      "inputs": [
        {
          "indexed": true,
          "internalType": "address",
          "name": "previousOwner",
          "type": "address"
        },
        {
          "indexed": true,
          "internalType": "address",
          "name": "newOwner",
          "type": "address"
        }
      ],
      "name": "OwnershipTransferred",
      "type": "event"
    },
    {
      "inputs": [],
      "name": "ADDRESSES_PROVIDER",
      "outputs": [
        {
          "internalType": "contract ILendingPoolAddressesProviderV2",
          "name": "",
          "type": "address"
        }
      ],
      "stateMutability": "view",
      "type": "function"
    },
    {
      "inputs": [],
      "name": "LENDING_POOL",
      "outputs": [
        {
          "internalType": "contract ILendingPoolV2",
          "name": "",
          "type": "address"
        }
      ],
      "stateMutability": "view",
      "type": "function"
    },
    {
      "inputs": [
        {
          "internalType": "address[]",
          "name": "assets",
          "type": "address[]"
        },
        {
          "internalType": "uint256[]",
          "name": "amounts",
          "type": "uint256[]"
        },
        {
          "internalType": "uint256[]",
          "name": "premiums",
          "type": "uint256[]"
        },
        {
          "internalType": "address",
          "name": "initiator",
          "type": "address"
        },
        {
          "internalType": "bytes",
          "name": "params",
          "type": "bytes"
        }
      ],
      "name": "executeOperation",
      "outputs": [
        {
          "internalType": "bool",
          "name": "",
          "type": "bool"
        }
      ],
      "stateMutability": "nonpayable",
      "type": "function"
    },
    {
      "inputs": [
        {
          "internalType": "address",
          "name": "_asset",
          "type": "address"
        },
        {
          "internalType": "uint256",
          "name": "_amount",
          "type": "uint256"
        }
      ],
      "name": "flashloan",
      "outputs": [],
      "stateMutability": "nonpayable",
      "type": "function"
    },
    {
      "inputs": [
        {
          "internalType": "address[]",
          "name": "assets",
          "type": "address[]"
        },
        {
          "internalType": "uint256[]",
          "name": "amounts",
          "type": "uint256[]"
        }
      ],
      "name": "flashloan",
      "outputs": [],
      "stateMutability": "nonpayable",
      "type": "function"
    },
    {
      "inputs": [],
      "name": "owner",
      "outputs": [
        {
          "internalType": "address",
          "name": "",
          "type": "address"
        }
      ],
      "stateMutability": "view",
      "type": "function"
    },
    {
      "inputs": [],
      "name": "renounceOwnership",
      "outputs": [],
      "stateMutability": "nonpayable",
      "type": "function"
    },
    {
      "inputs": [
        {
          "internalType": "address",
          "name": "newOwner",
          "type": "address"
        }
      ],
      "name": "transferOwnership",
      "outputs": [],
      "stateMutability": "nonpayable",
      "type": "function"
    },
    {
      "inputs": [
        {
          "internalType": "address",
          "name": "_assetAddress",
          "type": "address"
        }
      ],
      "name": "withdraw",
      "outputs": [],
      "stateMutability": "nonpayable",
      "type": "function"
    },
    {
      "stateMutability": "payable",
      "type": "receive"
    }
  ],
  "bytecode": "0x60c06040523480156200001157600080fd5b506040516200224638038062002246833981810160405281019062000037919062000232565b808073ffffffffffffffffffffffffffffffffffffffff1660808173ffffffffffffffffffffffffffffffffffffffff1660601b815250508073ffffffffffffffffffffffffffffffffffffffff16630261bf8b6040518163ffffffff1660e01b815260040160206040518083038186803b158015620000b657600080fd5b505afa158015620000cb573d6000803e3d6000fd5b505050506040513d601f19601f82011682018060405250810190620000f1919062000232565b73ffffffffffffffffffffffffffffffffffffffff1660a08173ffffffffffffffffffffffffffffffffffffffff1660601b8152505050620001486200013c6200014f60201b60201c565b6200015760201b60201c565b50620002ac565b600033905090565b60008060009054906101000a900473ffffffffffffffffffffffffffffffffffffffff169050816000806101000a81548173ffffffffffffffffffffffffffffffffffffffff021916908373ffffffffffffffffffffffffffffffffffffffff1602179055508173ffffffffffffffffffffffffffffffffffffffff168173ffffffffffffffffffffffffffffffffffffffff167f8be0079c531659141344cd1fd0a4f28419497f9722a3daafe3b4186f6b6457e060405160405180910390a35050565b6000815190506200022c8162000292565b92915050565b6000602082840312156200024557600080fd5b600062000255848285016200021b565b91505092915050565b60006200026b8262000272565b9050919050565b600073ffffffffffffffffffffffffffffffffffffffff82169050919050565b6200029d816200025e565b8114620002a957600080fd5b50565b60805160601c60a05160601c611f60620002e660003960008181610880015281816109c20152610d6e015260006102110152611f606000f3fe60806040526004361061008a5760003560e01c80638e5f5f57116100595780638e5f5f571461012c578063920f5c8414610155578063a933963c14610192578063b4dcfc77146101bb578063f2fde38b146101e657610091565b80630542975c1461009657806351cff8d9146100c1578063715018a6146100ea5780638da5cb5b1461010157610091565b3661009157005b600080fd5b3480156100a257600080fd5b506100ab61020f565b6040516100b891906118e2565b60405180910390f35b3480156100cd57600080fd5b506100e860048036038101906100e391906112fd565b610233565b005b3480156100f657600080fd5b506100ff610477565b005b34801561010d57600080fd5b506101166104ff565b60405161012391906117f8565b60405180910390f35b34801561013857600080fd5b50610153600480360381019061014e9190611326565b610528565b005b34801561016157600080fd5b5061017c60048036038101906101779190611362565b61076d565b60405161018991906118c7565b60405180910390f35b34801561019e57600080fd5b506101b960048036038101906101b4919061144a565b610936565b005b3480156101c757600080fd5b506101d06109c0565b6040516101dd91906118fd565b60405180910390f35b3480156101f257600080fd5b5061020d600480360381019061020891906112fd565b6109e4565b005b7f000000000000000000000000000000000000000000000000000000000000000081565b61023b610adc565b73ffffffffffffffffffffffffffffffffffffffff166102596104ff565b73ffffffffffffffffffffffffffffffffffffffff16146102af576040517f08c379a00000000000000000000000000000000000000000000000000000000081526004016102a69061197a565b60405180910390fd5b60008073ffffffffffffffffffffffffffffffffffffffff168273ffffffffffffffffffffffffffffffffffffffff1614156103575760003090508073ffffffffffffffffffffffffffffffffffffffff1631915060003390508073ffffffffffffffffffffffffffffffffffffffff166108fc849081150290604051600060405180830381858888f1935050505015801561034f573d6000803e3d6000fd5b50505061040e565b8173ffffffffffffffffffffffffffffffffffffffff166370a08231306040518263ffffffff1660e01b815260040161039091906117f8565b60206040518083038186803b1580156103a857600080fd5b505afa1580156103bc573d6000803e3d6000fd5b505050506040513d601f19601f820116820180604052508101906103e091906114df565b905061040d33828473ffffffffffffffffffffffffffffffffffffffff16610ae49092919063ffffffff16565b5b8173ffffffffffffffffffffffffffffffffffffffff163373ffffffffffffffffffffffffffffffffffffffff167f9207361cc2a04b9c7a06691df1eb87c6a63957ae88bf01d0d18c81e3d12720998360405161046b91906119fa565b60405180910390a35050565b61047f610adc565b73ffffffffffffffffffffffffffffffffffffffff1661049d6104ff565b73ffffffffffffffffffffffffffffffffffffffff16146104f3576040517f08c379a00000000000000000000000000000000000000000000000000000000081526004016104ea9061197a565b60405180910390fd5b6104fd6000610b6a565b565b60008060009054906101000a900473ffffffffffffffffffffffffffffffffffffffff16905090565b610530610adc565b73ffffffffffffffffffffffffffffffffffffffff1661054e6104ff565b73ffffffffffffffffffffffffffffffffffffffff16146105a4576040517f08c379a000000000000000000000000000000000000000000000000000000000815260040161059b9061197a565b60405180910390fd5b60006040518060200160405280600081525090506000600167ffffffffffffffff8111156105fb577f4e487b7100000000000000000000000000000000000000000000000000000000600052604160045260246000fd5b6040519080825280602002602001820160405280156106295781602001602082028036833780820191505090505b5090508381600081518110610667577f4e487b7100000000000000000000000000000000000000000000000000000000600052603260045260246000fd5b602002602001019073ffffffffffffffffffffffffffffffffffffffff16908173ffffffffffffffffffffffffffffffffffffffff16815250506000600167ffffffffffffffff8111156106e4577f4e487b7100000000000000000000000000000000000000000000000000000000600052604160045260246000fd5b6040519080825280602002602001820160405280156107125781602001602082028036833780820191505090505b5090508381600081518110610750577f4e487b7100000000000000000000000000000000000000000000000000000000600052603260045260246000fd5b6020026020010181815250506107668282610c2e565b5050505050565b600080600090505b8a8a90508110156109245760006108138888848181106107be577f4e487b7100000000000000000000000000000000000000000000000000000000600052603260045260246000fd5b905060200201358b8b858181106107fe577f4e487b7100000000000000000000000000000000000000000000000000000000600052603260045260246000fd5b90506020020135610e0c90919063ffffffff16565b90508b8b8381811061084e577f4e487b7100000000000000000000000000000000000000000000000000000000600052603260045260246000fd5b905060200201602081019061086391906112fd565b73ffffffffffffffffffffffffffffffffffffffff1663095ea7b37f0000000000000000000000000000000000000000000000000000000000000000836040518363ffffffff1660e01b81526004016108bd92919061189e565b602060405180830381600087803b1580156108d757600080fd5b505af11580156108eb573d6000803e3d6000fd5b505050506040513d601f19601f8201168201806040525081019061090f91906114b6565b5050808061091c90611c9f565b915050610775565b50600190509998505050505050505050565b61093e610adc565b73ffffffffffffffffffffffffffffffffffffffff1661095c6104ff565b73ffffffffffffffffffffffffffffffffffffffff16146109b2576040517f08c379a00000000000000000000000000000000000000000000000000000000081526004016109a99061197a565b60405180910390fd5b6109bc8282610c2e565b5050565b7f000000000000000000000000000000000000000000000000000000000000000081565b6109ec610adc565b73ffffffffffffffffffffffffffffffffffffffff16610a0a6104ff565b73ffffffffffffffffffffffffffffffffffffffff1614610a60576040517f08c379a0000000000000000000000000000000000000000000000000000000008152600401610a579061197a565b60405180910390fd5b600073ffffffffffffffffffffffffffffffffffffffff168173ffffffffffffffffffffffffffffffffffffffff161415610ad0576040517f08c379a0000000000000000000000000000000000000000000000000000000008152600401610ac79061193a565b60405180910390fd5b610ad981610b6a565b50565b600033905090565b610b658363a9059cbb60e01b8484604051602401610b0392919061189e565b604051602081830303815290604052907bffffffffffffffffffffffffffffffffffffffffffffffffffffffff19166020820180517bffffffffffffffffffffffffffffffffffffffffffffffffffffffff8381831617835250505050610e22565b505050565b60008060009054906101000a900473ffffffffffffffffffffffffffffffffffffffff169050816000806101000a81548173ffffffffffffffffffffffffffffffffffffffff021916908373ffffffffffffffffffffffffffffffffffffffff1602179055508173ffffffffffffffffffffffffffffffffffffffff168173ffffffffffffffffffffffffffffffffffffffff167f8be0079c531659141344cd1fd0a4f28419497f9722a3daafe3b4186f6b6457e060405160405180910390a35050565b8051825114610c72576040517f08c379a0000000000000000000000000000000000000000000000000000000008152600401610c699061199a565b60405180910390fd5b600030905060003090506000604051806020016040528060008152509050600080865167ffffffffffffffff811115610cd4577f4e487b7100000000000000000000000000000000000000000000000000000000600052604160045260246000fd5b604051908082528060200260200182016040528015610d025781602001602082028036833780820191505090505b50905060005b8751811015610d6b576000828281518110610d4c577f4e487b7100000000000000000000000000000000000000000000000000000000600052603260045260246000fd5b6020026020010181815250508080610d6390611c9f565b915050610d08565b507f000000000000000000000000000000000000000000000000000000000000000073ffffffffffffffffffffffffffffffffffffffff1663ab9c4b5d868989858989896040518863ffffffff1660e01b8152600401610dd19796959493929190611813565b600060405180830381600087803b158015610deb57600080fd5b505af1158015610dff573d6000803e3d6000fd5b5050505050505050505050565b60008183610e1a9190611b47565b905092915050565b6000610e84826040518060400160405280602081526020017f5361666545524332303a206c6f772d6c6576656c2063616c6c206661696c65648152508573ffffffffffffffffffffffffffffffffffffffff16610ee99092919063ffffffff16565b9050600081511115610ee45780806020019051810190610ea491906114b6565b610ee3576040517f08c379a0000000000000000000000000000000000000000000000000000000008152600401610eda906119da565b60405180910390fd5b5b505050565b6060610ef88484600085610f01565b90509392505050565b606082471015610f46576040517f08c379a0000000000000000000000000000000000000000000000000000000008152600401610f3d9061195a565b60405180910390fd5b610f4f85611015565b610f8e576040517f08c379a0000000000000000000000000000000000000000000000000000000008152600401610f85906119ba565b60405180910390fd5b6000808673ffffffffffffffffffffffffffffffffffffffff168587604051610fb791906117e1565b60006040518083038185875af1925050503d8060008114610ff4576040519150601f19603f3d011682016040523d82523d6000602084013e610ff9565b606091505b5091509150611009828286611038565b92505050949350505050565b6000808273ffffffffffffffffffffffffffffffffffffffff163b119050919050565b6060831561104857829050611098565b60008351111561105b5782518084602001fd5b816040517f08c379a000000000000000000000000000000000000000000000000000000000815260040161108f9190611918565b60405180910390fd5b9392505050565b60006110b26110ad84611a3a565b611a15565b905080838252602082019050828560208602820111156110d157600080fd5b60005b8581101561110157816110e78882611177565b8452602084019350602083019250506001810190506110d4565b5050509392505050565b600061111e61111984611a66565b611a15565b9050808382526020820190508285602086028201111561113d57600080fd5b60005b8581101561116d578161115388826112d3565b845260208401935060208301925050600181019050611140565b5050509392505050565b60008135905061118681611ee5565b92915050565b60008083601f84011261119e57600080fd5b8235905067ffffffffffffffff8111156111b757600080fd5b6020830191508360208202830111156111cf57600080fd5b9250929050565b600082601f8301126111e757600080fd5b81356111f784826020860161109f565b91505092915050565b60008083601f84011261121257600080fd5b8235905067ffffffffffffffff81111561122b57600080fd5b60208301915083602082028301111561124357600080fd5b9250929050565b600082601f83011261125b57600080fd5b813561126b84826020860161110b565b91505092915050565b60008151905061128381611efc565b92915050565b60008083601f84011261129b57600080fd5b8235905067ffffffffffffffff8111156112b457600080fd5b6020830191508360018202830111156112cc57600080fd5b9250929050565b6000813590506112e281611f13565b92915050565b6000815190506112f781611f13565b92915050565b60006020828403121561130f57600080fd5b600061131d84828501611177565b91505092915050565b6000806040838503121561133957600080fd5b600061134785828601611177565b9250506020611358858286016112d3565b9150509250929050565b600080600080600080600080600060a08a8c03121561138057600080fd5b60008a013567ffffffffffffffff81111561139a57600080fd5b6113a68c828d0161118c565b995099505060208a013567ffffffffffffffff8111156113c557600080fd5b6113d18c828d01611200565b975097505060408a013567ffffffffffffffff8111156113f057600080fd5b6113fc8c828d01611200565b9550955050606061140f8c828d01611177565b93505060808a013567ffffffffffffffff81111561142c57600080fd5b6114388c828d01611289565b92509250509295985092959850929598565b6000806040838503121561145d57600080fd5b600083013567ffffffffffffffff81111561147757600080fd5b611483858286016111d6565b925050602083013567ffffffffffffffff8111156114a057600080fd5b6114ac8582860161124a565b9150509250929050565b6000602082840312156114c857600080fd5b60006114d684828501611274565b91505092915050565b6000602082840312156114f157600080fd5b60006114ff848285016112e8565b91505092915050565b60006115148383611538565b60208301905092915050565b600061152c83836117c3565b60208301905092915050565b61154181611b9d565b82525050565b61155081611b9d565b82525050565b600061156182611ab2565b61156b8185611af8565b935061157683611a92565b8060005b838110156115a757815161158e8882611508565b975061159983611ade565b92505060018101905061157a565b5085935050505092915050565b60006115bf82611abd565b6115c98185611b09565b93506115d483611aa2565b8060005b838110156116055781516115ec8882611520565b97506115f783611aeb565b9250506001810190506115d8565b5085935050505092915050565b61161b81611baf565b82525050565b600061162c82611ac8565b6116368185611b1a565b9350611646818560208601611c3b565b61164f81611d46565b840191505092915050565b600061166582611ac8565b61166f8185611b2b565b935061167f818560208601611c3b565b80840191505092915050565b61169481611bf3565b82525050565b6116a381611c17565b82525050565b60006116b482611ad3565b6116be8185611b36565b93506116ce818560208601611c3b565b6116d781611d46565b840191505092915050565b60006116ef602683611b36565b91506116fa82611d57565b604082019050919050565b6000611712602683611b36565b915061171d82611da6565b604082019050919050565b6000611735602083611b36565b915061174082611df5565b602082019050919050565b6000611758602e83611b36565b915061176382611e1e565b604082019050919050565b600061177b601d83611b36565b915061178682611e6d565b602082019050919050565b600061179e602a83611b36565b91506117a982611e96565b604082019050919050565b6117bd81611bbb565b82525050565b6117cc81611be9565b82525050565b6117db81611be9565b82525050565b60006117ed828461165a565b915081905092915050565b600060208201905061180d6000830184611547565b92915050565b600060e082019050611828600083018a611547565b818103602083015261183a8189611556565b9050818103604083015261184e81886115b4565b9050818103606083015261186281876115b4565b90506118716080830186611547565b81810360a08301526118838185611621565b905061189260c08301846117b4565b98975050505050505050565b60006040820190506118b36000830185611547565b6118c060208301846117d2565b9392505050565b60006020820190506118dc6000830184611612565b92915050565b60006020820190506118f7600083018461168b565b92915050565b6000602082019050611912600083018461169a565b92915050565b6000602082019050818103600083015261193281846116a9565b905092915050565b60006020820190508181036000830152611953816116e2565b9050919050565b6000602082019050818103600083015261197381611705565b9050919050565b6000602082019050818103600083015261199381611728565b9050919050565b600060208201905081810360008301526119b38161174b565b9050919050565b600060208201905081810360008301526119d38161176e565b9050919050565b600060208201905081810360008301526119f381611791565b9050919050565b6000602082019050611a0f60008301846117d2565b92915050565b6000611a1f611a30565b9050611a2b8282611c6e565b919050565b6000604051905090565b600067ffffffffffffffff821115611a5557611a54611d17565b5b602082029050602081019050919050565b600067ffffffffffffffff821115611a8157611a80611d17565b5b602082029050602081019050919050565b6000819050602082019050919050565b6000819050602082019050919050565b600081519050919050565b600081519050919050565b600081519050919050565b600081519050919050565b6000602082019050919050565b6000602082019050919050565b600082825260208201905092915050565b600082825260208201905092915050565b600082825260208201905092915050565b600081905092915050565b600082825260208201905092915050565b6000611b5282611be9565b9150611b5d83611be9565b9250827fffffffffffffffffffffffffffffffffffffffffffffffffffffffffffffffff03821115611b9257611b91611ce8565b5b828201905092915050565b6000611ba882611bc9565b9050919050565b60008115159050919050565b600061ffff82169050919050565b600073ffffffffffffffffffffffffffffffffffffffff82169050919050565b6000819050919050565b6000611bfe82611c05565b9050919050565b6000611c1082611bc9565b9050919050565b6000611c2282611c29565b9050919050565b6000611c3482611bc9565b9050919050565b60005b83811015611c59578082015181840152602081019050611c3e565b83811115611c68576000848401525b50505050565b611c7782611d46565b810181811067ffffffffffffffff82111715611c9657611c95611d17565b5b80604052505050565b6000611caa82611be9565b91507fffffffffffffffffffffffffffffffffffffffffffffffffffffffffffffffff821415611cdd57611cdc611ce8565b5b600182019050919050565b7f4e487b7100000000000000000000000000000000000000000000000000000000600052601160045260246000fd5b7f4e487b7100000000000000000000000000000000000000000000000000000000600052604160045260246000fd5b6000601f19601f8301169050919050565b7f4f776e61626c653a206e6577206f776e657220697320746865207a65726f206160008201527f6464726573730000000000000000000000000000000000000000000000000000602082015250565b7f416464726573733a20696e73756666696369656e742062616c616e636520666f60008201527f722063616c6c0000000000000000000000000000000000000000000000000000602082015250565b7f4f776e61626c653a2063616c6c6572206973206e6f7420746865206f776e6572600082015250565b7f556e657175616c206e756d626572206f662061737365747320616e6420616d6f60008201527f756e747320737570706c69656421000000000000000000000000000000000000602082015250565b7f416464726573733a2063616c6c20746f206e6f6e2d636f6e7472616374000000600082015250565b7f5361666545524332303a204552433230206f7065726174696f6e20646964206e60008201527f6f74207375636365656400000000000000000000000000000000000000000000602082015250565b611eee81611b9d565b8114611ef957600080fd5b50565b611f0581611baf565b8114611f1057600080fd5b50565b611f1c81611be9565b8114611f2757600080fd5b5056fea264697066735822122004eb17c4f34f403b49bde939ab704e9f466d48e28036503502f795fa566052fd64736f6c63430008010033",
  "linkReferences": {},
  "deployedLinkReferences": {}
}