{
  "_format": "hh-sol-artifact-1",
  "contractName": "Withdrawable",
  "sourceName": "contracts/utils/Withdrawable.sol",
  "abi": [
    {
      "anonymous": false,
      "inputs": [
        {
          "indexed": true,
          "internalType": "address",
          "name": "_from",
          "type": "address"
        },
        {
          "indexed": true,
          "internalType": "address",
          "name": "_assetAddress",
          "type": "address"
        },
        {
          "indexed": false,
          "internalType": "uint256",
          "name": "amount",
          "type": "uint256"
        }
      ],
      "name": "LogWithdraw",
      "type": "event"
    },
    {
      "anonymous": false,
      "inputs": [
        {
          "indexed": true,
          "internalType": "address",
          "name": "previousOwner",
          "type": "address"
        },
        {
          "indexed": true,
          "internalType": "address",
          "name": "newOwner",
          "type": "address"
        }
      ],
      "name": "OwnershipTransferred",
      "type": "event"
    },
    {
      "inputs": [],
      "name": "owner",
      "outputs": [
        {
          "internalType": "address",
          "name": "",
          "type": "address"
        }
      ],
      "stateMutability": "view",
      "type": "function"
    },
    {
      "inputs": [],
      "name": "renounceOwnership",
      "outputs": [],
      "stateMutability": "nonpayable",
      "type": "function"
    },
    {
      "inputs": [
        {
          "internalType": "address",
          "name": "newOwner",
          "type": "address"
        }
      ],
      "name": "transferOwnership",
      "outputs": [],
      "stateMutability": "nonpayable",
      "type": "function"
    },
    {
      "inputs": [
        {
          "internalType": "address",
          "name": "_assetAddress",
          "type": "address"
        }
      ],
      "name": "withdraw",
      "outputs": [],
      "stateMutability": "nonpayable",
      "type": "function"
    }
  ],
  "bytecode": "0x608060405234801561001057600080fd5b5061002d61002261003260201b60201c565b61003a60201b60201c565b6100fe565b600033905090565b60008060009054906101000a900473ffffffffffffffffffffffffffffffffffffffff169050816000806101000a81548173ffffffffffffffffffffffffffffffffffffffff021916908373ffffffffffffffffffffffffffffffffffffffff1602179055508173ffffffffffffffffffffffffffffffffffffffff168173ffffffffffffffffffffffffffffffffffffffff167f8be0079c531659141344cd1fd0a4f28419497f9722a3daafe3b4186f6b6457e060405160405180910390a35050565b610e0e8061010d6000396000f3fe608060405234801561001057600080fd5b506004361061004c5760003560e01c806351cff8d914610051578063715018a61461006d5780638da5cb5b14610077578063f2fde38b14610095575b600080fd5b61006b600480360381019061006691906108ac565b6100b1565b005b6100756102f5565b005b61007f61037d565b60405161008c9190610a75565b60405180910390f35b6100af60048036038101906100aa91906108ac565b6103a6565b005b6100b961049e565b73ffffffffffffffffffffffffffffffffffffffff166100d761037d565b73ffffffffffffffffffffffffffffffffffffffff161461012d576040517f08c379a000000000000000000000000000000000000000000000000000000000815260040161012490610b1b565b60405180910390fd5b60008073ffffffffffffffffffffffffffffffffffffffff168273ffffffffffffffffffffffffffffffffffffffff1614156101d55760003090508073ffffffffffffffffffffffffffffffffffffffff1631915060003390508073ffffffffffffffffffffffffffffffffffffffff166108fc849081150290604051600060405180830381858888f193505050501580156101cd573d6000803e3d6000fd5b50505061028c565b8173ffffffffffffffffffffffffffffffffffffffff166370a08231306040518263ffffffff1660e01b815260040161020e9190610a75565b60206040518083038186803b15801561022657600080fd5b505afa15801561023a573d6000803e3d6000fd5b505050506040513d601f19601f8201168201806040525081019061025e91906108fe565b905061028b33828473ffffffffffffffffffffffffffffffffffffffff166104a69092919063ffffffff16565b5b8173ffffffffffffffffffffffffffffffffffffffff163373ffffffffffffffffffffffffffffffffffffffff167f9207361cc2a04b9c7a06691df1eb87c6a63957ae88bf01d0d18c81e3d1272099836040516102e99190610b7b565b60405180910390a35050565b6102fd61049e565b73ffffffffffffffffffffffffffffffffffffffff1661031b61037d565b73ffffffffffffffffffffffffffffffffffffffff1614610371576040517f08c379a000000000000000000000000000000000000000000000000000000000815260040161036890610b1b565b60405180910390fd5b61037b600061052c565b565b60008060009054906101000a900473ffffffffffffffffffffffffffffffffffffffff16905090565b6103ae61049e565b73ffffffffffffffffffffffffffffffffffffffff166103cc61037d565b73ffffffffffffffffffffffffffffffffffffffff1614610422576040517f08c379a000000000000000000000000000000000000000000000000000000000815260040161041990610b1b565b60405180910390fd5b600073ffffffffffffffffffffffffffffffffffffffff168173ffffffffffffffffffffffffffffffffffffffff161415610492576040517f08c379a000000000000000000000000000000000000000000000000000000000815260040161048990610adb565b60405180910390fd5b61049b8161052c565b50565b600033905090565b6105278363a9059cbb60e01b84846040516024016104c5929190610a90565b604051602081830303815290604052907bffffffffffffffffffffffffffffffffffffffffffffffffffffffff19166020820180517bffffffffffffffffffffffffffffffffffffffffffffffffffffffff83818316178352505050506105f0565b505050565b60008060009054906101000a900473ffffffffffffffffffffffffffffffffffffffff169050816000806101000a81548173ffffffffffffffffffffffffffffffffffffffff021916908373ffffffffffffffffffffffffffffffffffffffff1602179055508173ffffffffffffffffffffffffffffffffffffffff168173ffffffffffffffffffffffffffffffffffffffff167f8be0079c531659141344cd1fd0a4f28419497f9722a3daafe3b4186f6b6457e060405160405180910390a35050565b6000610652826040518060400160405280602081526020017f5361666545524332303a206c6f772d6c6576656c2063616c6c206661696c65648152508573ffffffffffffffffffffffffffffffffffffffff166106b79092919063ffffffff16565b90506000815111156106b2578080602001905181019061067291906108d5565b6106b1576040517f08c379a00000000000000000000000000000000000000000000000000000000081526004016106a890610b5b565b60405180910390fd5b5b505050565b60606106c684846000856106cf565b90509392505050565b606082471015610714576040517f08c379a000000000000000000000000000000000000000000000000000000000815260040161070b90610afb565b60405180910390fd5b61071d856107e3565b61075c576040517f08c379a000000000000000000000000000000000000000000000000000000000815260040161075390610b3b565b60405180910390fd5b6000808673ffffffffffffffffffffffffffffffffffffffff1685876040516107859190610a5e565b60006040518083038185875af1925050503d80600081146107c2576040519150601f19603f3d011682016040523d82523d6000602084013e6107c7565b606091505b50915091506107d7828286610806565b92505050949350505050565b6000808273ffffffffffffffffffffffffffffffffffffffff163b119050919050565b6060831561081657829050610866565b6000835111156108295782518084602001fd5b816040517f08c379a000000000000000000000000000000000000000000000000000000000815260040161085d9190610ab9565b60405180910390fd5b9392505050565b60008135905061087c81610d93565b92915050565b60008151905061089181610daa565b92915050565b6000815190506108a681610dc1565b92915050565b6000602082840312156108be57600080fd5b60006108cc8482850161086d565b91505092915050565b6000602082840312156108e757600080fd5b60006108f584828501610882565b91505092915050565b60006020828403121561091057600080fd5b600061091e84828501610897565b91505092915050565b61093081610bc8565b82525050565b600061094182610b96565b61094b8185610bac565b935061095b818560208601610c10565b80840191505092915050565b600061097282610ba1565b61097c8185610bb7565b935061098c818560208601610c10565b61099581610c43565b840191505092915050565b60006109ad602683610bb7565b91506109b882610c54565b604082019050919050565b60006109d0602683610bb7565b91506109db82610ca3565b604082019050919050565b60006109f3602083610bb7565b91506109fe82610cf2565b602082019050919050565b6000610a16601d83610bb7565b9150610a2182610d1b565b602082019050919050565b6000610a39602a83610bb7565b9150610a4482610d44565b604082019050919050565b610a5881610c06565b82525050565b6000610a6a8284610936565b915081905092915050565b6000602082019050610a8a6000830184610927565b92915050565b6000604082019050610aa56000830185610927565b610ab26020830184610a4f565b9392505050565b60006020820190508181036000830152610ad38184610967565b905092915050565b60006020820190508181036000830152610af4816109a0565b9050919050565b60006020820190508181036000830152610b14816109c3565b9050919050565b60006020820190508181036000830152610b34816109e6565b9050919050565b60006020820190508181036000830152610b5481610a09565b9050919050565b60006020820190508181036000830152610b7481610a2c565b9050919050565b6000602082019050610b906000830184610a4f565b92915050565b600081519050919050565b600081519050919050565b600081905092915050565b600082825260208201905092915050565b6000610bd382610be6565b9050919050565b60008115159050919050565b600073ffffffffffffffffffffffffffffffffffffffff82169050919050565b6000819050919050565b60005b83811015610c2e578082015181840152602081019050610c13565b83811115610c3d576000848401525b50505050565b6000601f19601f8301169050919050565b7f4f776e61626c653a206e6577206f776e657220697320746865207a65726f206160008201527f6464726573730000000000000000000000000000000000000000000000000000602082015250565b7f416464726573733a20696e73756666696369656e742062616c616e636520666f60008201527f722063616c6c0000000000000000000000000000000000000000000000000000602082015250565b7f4f776e61626c653a2063616c6c6572206973206e6f7420746865206f776e6572600082015250565b7f416464726573733a2063616c6c20746f206e6f6e2d636f6e7472616374000000600082015250565b7f5361666545524332303a204552433230206f7065726174696f6e20646964206e60008201527f6f74207375636365656400000000000000000000000000000000000000000000602082015250565b610d9c81610bc8565b8114610da757600080fd5b50565b610db381610bda565b8114610dbe57600080fd5b50565b610dca81610c06565b8114610dd557600080fd5b5056fea2646970667358221220925ab361e28eb051d71e50b152fa17aa6947591f904fd0564512f914ad92c6db64736f6c63430008010033",
  "linkReferences": {},
  "deployedLinkReferences": {}
}